:020000040000fa
:10000000f07f0020dd1400000d1700001317000022
:1000100000000000000000000000000000000000e0
:100020000000000000000000000000002712000097
:10003000000000000000000027120000271200004e
:1000400027120000271200002712000027120000cc
:1000500027120000271200002712000027120000bc
:1000600027120000271200002712000027120000ac
:10007000271200002712000027120000271200009c
:10008000271200002712000027120000271200008c
:1000900027120000000000000000000027120000ee
:1000a000271200002712000027120000271200006c
:020000040000fa
:1000b000f8b5c046f8bc08bc9e467047bd140000a9
:1000c000f8b5c046f8bc08bc9e46704795140000c1
:020000040000fa
:1000d00080b500af024b82225a60c046bd4680bd4b
:1000e0000040004180b500af024b034a1a80c04671
:1000f000bd4680bd0040004146a5ffff80b586b0eb
:1001000000aff860b9607a607b687b61ba68796932
:10011000fb68180001f0d4fa01231800bd4606b0b0
:1001200080bd80b584b000af786039603b68bb604b
:100130000023fb600ce0fb689b007a68d3181a6808
:10014000bb681a60bb680433bb60fb680133fb60ab
:10015000fb680f2befd901231800bd4604b080bd0a
:1001600080b584b000af78600e217b1804221a801d
:10017000074b7a685208da61054a7b181b880549e3
:100180000b439bb2138001231800bd4604b080bd11
:100190000040004100a5ffff80b584b000af78604b
:1001a00039603b68bb600023fb600ce0fb689b0090
:1001b0007a68d3181a68bb681a60bb680433bb60de
:1001c000fb680133fb60fb680f2befd9054b3a68e6
:1001d0005208da61034b044a1a8001231800bd4615
:1001e00004b080bd0040004104a5ffff80b582b08f
:1001f00000af7860054b7a685208da61034b044a15
:100200001a8001231800bd4602b080bd00400041a5
:1002100002a5ffff80b586b000af786039603b680b
:100220003b610f23fb1800221a703b68154a93426a
:1002300021d93b68144a93421dd800237b610ce00e
:100240007b699b007a68d3181a683b691a603b691e
:1002500004333b617b6901337b617b690f2befd9f1
:100260000a4b3a685208da61084b094a1a800f2390
:10027000fb1801221a700f23fb181b781800bd46cb
:1002800006b080bdff3f8000c040800000400041bc
:1002900006a5ffff80b584b000af78600f217b1802
:1002a00000221a707b680c4a93420dd97b680b4a76
:1002b000934209d80a4b7a685208da61084b094a16
:1002c0001a807b1801221a700f23fb181b78180064
:1002d000bd4604b080bdc046ff3f800000418000a5
:1002e0000040004105a5ffff80b582b000af0c4b78
:1002f0001b8b9ab2bb1d1c210a401a80084b1b8b1a
:100300009ab20749bb1d1b8813439bb20b83044b56
:1003100002221a75bb1d1b881800bd4602b080bda5
:100320000040004180b500af064b1b7ddbb21a00d8
:1003300001231340013b5a1e9341dbb21800bd4616
:1003400080bdc0460040004180b582b000af7860fb
:10035000054b7a685208da61034b044a1a80c0469a
:10036000bd4602b080bdc0460040004140a5ffff31
:1003700080b582b000af7860054b7a685208da61c8
:10038000034b044a1a80c046bd4602b080bdc04639
:100390000040004141a5ffff80b500af024b034a7a
:1003a0001a80c046bd4680bd0040004145a5ffff04
:020000040000fa
:1003b00080b500af274b284a1a60264a4023002107
:1003c000d154244a46230021d154224a47230121f3
:1003d000d154204a48230121d1541e4a49230121e6
:1003e000d1541c4a4a230121d1541a4a4b230121da
:1003f000d154184a4d230021d154164a5c230221be
:10040000d154144a30230021d154124a332360219d
:10041000d154104a34236621d1540e4a3523662123
:10042000d1540c4a36230021d1540a4a3e230021dc
:10043000d1540849802280231b018b50054acb23cd
:100440000021d154034ab5230021d154c046bd46f2
:1004500080bdc046004400414120000080b582b00c
:1004600000af78607b681b6a1800bd4602b080bd93
:1004700080b584b000aff860b9607a60fb681b6932
:10048000ba68d2431a401100bb687a681a40fb6808
:100490000a431a61c046bd4604b080bd80b582b033
:1004a00000af78607b681b691800bd4602b080bd54
:1004b00080b582b000af786039607b683a689a6135
:1004c000c046bd4602b080bd80b582b000af786046
:1004d00039607b683a685a61c046bd4602b080bd4b
:1004e00080b582b000af786039607b683a68da61c5
:1004f000c046bd4602b080bd80b584b000af786014
:1005000039607b683a685a600023fb601ae03a68f9
:10051000fb68da4013000122134010d07a684021b2
:10052000fb68d3185b181b78dbb27a6802210b4397
:10053000d8b24021fb68d3185b18021c1a70fb6804
:100540000133fb60fb681f2be1d9c046bd4604b0f8
:1005500080bd80b582b000af786039607b683a6852
:100560009a60c046bd4602b080bd80b586b000af7f
:100570000200bb1d1a807b1d0a1c1a707b1d1b7894
:100580003b61bb1d1b885b099bb2224a94466344b6
:10059000db01fb60bb1d1b881f221340bb60fa6898
:1005a000bb685b083021d3185b181b78dbb27b611a
:1005b000bb680122134008d07b69f02293431a00e4
:1005c0003b691b0113437b6105e07b690f22934369
:1005d0003a6913437b61fa68bb685b087969c8b202
:1005e0003021d3185b18021c1a70fa684021bb68ce
:1005f000d3185b181b78dbb2fa6801210b43d8b221
:100600004021bb68d3185b18021c1a70c046bd4657
:1006100006b080bd8800820080b584b000af0200c3
:10062000bb1d1a80bb1d1b885b099bb20f4a9446f9
:100630006344db01fb60bb1d1b881f221340bb60b2
:10064000fa684021bb68d3185b181b78dbb2fa68e4
:1006500001218b43d8b24021bb68d3185b18021c20
:100660001a70c046bd4604b080bdc04688008200f6
:020000040000fa
:1006700090b585b000af2a4bbb600023fb6048e01b
:10068000f86800f0f4ff031c181c00f04bff254a2b
:10069000254b00f0eff903000c00180021000022a8
:1006a000224b00f0b9fc03000c001800210000f000
:1006b00039fe031c7b607b68181c00f0b7fb031c31
:1006c000191cb86800f00afd031c3b60386800f094
:1006d0004bff0100164bfa689200d150144bfa6898
:1006e0009200d358134a934204dd114bfa689200ea
:1006f0001049d1500e4bfa689200d3580e4a9342db
:1007000004da0b4bfa6892000b49d150fb680133b5
:10071000fb60fb685f2bb3d9c046bd4605b090bdfa
:10072000cbcccc4a182d4454fb2119400000484042
:1007300000000020ffff7f00000080ff80b582b036
:1007400000af78603960c0460e4b9b8a9bb21a009e
:1007500080239b001340f7d07b681a02094b5a6331
:10076000c046084b9b8a9bb21a0080239b00134013
:10077000f7d03b681a02034b5a63c046bd4602b02d
:1007800080bdc0460050004280b582b000af0e4b25
:100790001a680e4b9200d3587b607a687b68110010
:1007a0001800fff7cbff084b1b685a1c064b1a605a
:1007b000054b1b685f2bead9054b80229201da6159
:1007c000014b00221a60e2e78001002000000020b7
:1007d0000044004180b584b000af0023fb602b4b88
:1007e000802292019a610023bb601ae0c046284b28
:1007f0009b8a9bb21a0080239b001340f7d0244ba6
:10080000244a5a63c046224b9b8a9bb21a0080231b
:100810009b001340f7d01e4b1e4a5a63bb6801333e
:10082000bb60bb68092be1dd00237b601ce0c04698
:10083000174b9b8a9bb21a0080239b001340f7d072
:10084000134b802212065a63c046114b9b8a9bb2ff
:100850001a0080239b001340f7d00d4b8022120614
:100860005a637b6801337b607b68092bdfddfb68a3
:100870000133fb60fb686421180000f011fd0b1ec2
:10088000b1d1024b80229201da61ace70044004111
:080890000050004200ffff7f51
:020000040000fa
:1008980080b582b000af0200fb1d1a70fb1d1b78eb
:1008a8007f2b09d8fb1d1b781a001f231a40044b05
:1008b800012191400a001a60c046bd4602b080bdc1
:1008c80000e100e080b582b000af0200fb1d1a70a5
:1008d800fb1d1b787f2b0bd8084b1a68fb1d1b7858
:1008e80019001f230b40da4013000122134000e0d7
:1008f80000231800bd4602b080bdc04600e100e0fc
:1009080080b582b000af0200fb1d1a70fb1d1b787a
:100918007f2b0ed8fb1d1b781a001f231340074995
:1009280001229a40130080228b50bff34f8fbff3f0
:100938006f8fc046bd4602b080bdc04600e100e0f2
:1009480080b500afbff35f8f62b6c046bd4680bdbd
:1009580080b500afbff35f8f62b6c046bd4680bdad
:1009680080b582b000afeff310833b603a68fb1d9f
:1009780051424a411a7072b6bff35f8ffb1d1b7854
:100988001800bd4602b080bd80b582b000af02003d
:10099800fb1d1a70fb1d1b78002b03d0bff35f8f64
:1009a80062b602e072b6bff35f8fc046bd4602b0c2
:1009b80080bdb0b584b000af0200fb1d1a700f25d2
:1009c8007c19fff7cdff03002370fb1d1b785bb27a
:1009d8001800fff777ff02000e243b19511e8a41c9
:1009e8001a70fb1d1b785bb21800fff789ff7b1993
:1009f8001b781800fff7c8ff3b191b781800bd4685
:100a080004b0b0bd80b582b000af0200fb1d1a7003
:100a1800bb1d0a1c1a70bb1d1b78002b06d0fb1dc2
:100a28001b785bb21800fff733ffc046c046bd46cf
:040a380002b080bdcb
:020000040000fa
:100a3c0008d1002806d1f54204d801d3002a01d1ef
:100a4c006d0d09d10020c143090dc904f0bdf9d1c8
:100a5c001242f7d1640df5d00020c1434905490875
:100a6c00a6e000206146f0bdf0b50127ff070e009f
:100a7c005e403e40b446be0a4c18dd18f442d7d254
:100a8c00f542e4d2640decd06d0dead06419c902c4
:100a9c003943460dc0023143db023b43db0a10b441
:100aac008e4685b297b26f43140c6c433e0ca4195e
:100abc00260c2404bfb227439cb26c43a419190c16
:100acc006943250ca4b249190d04090c6419000cd6
:100adc0095b245433e0c76193743bfb2360c150c14
:100aec004543ad19a6b2240cad192e0437432e0c78
:100afc0036199db24543ad19acb22e0c89191d0c9b
:100b0c0045436d182e04290c3443704680b295b2bf
:100b1c0045433e0c76193743bfb2360c150c454392
:100b2c00ad19a6b2ad19240c2e0437432e0c361970
:100b3c009db24543ad19acb22e0c89191d0c454321
:100b4c006d182e043443290c75462d0c90b2684355
:100b5c003e0c80190604bfb23e43070ca0b23f18ee
:100b6c00120c6a43d019020c80b2240ca4189ab24d
:100b7c006a43121914042043120c89181b0c6b4382
:100b8c00c91810bc01273d05294203d1b6194041b3
:100b9c004941013cff077d0d013d641b0bdb6d00e2
:100bac00ac4209da240500254208be416841614186
:0a0bbc0066463143f0bd54e74ee7f2
:020000040000fa
:100bc6000122d20703004b403dd430b4431a01d270
:100bd600c01ac9184b004400240eff2c29d0002c43
:100be60024d01b0e20d0e31a182b1ddc090211435a
:100bf600c40d000210435d4219350a00aa40d2090d
:100c0600d940451801d36d080234013ce405280a91
:100c16000121c9072d062a438a4160414100090e78
:100c2600ff2901d3c00dc00530bc7047c00fc007f7
:100c3600fae742001823da41ff2af5d07f200001a7
:100c46000c300005f0e7a4465140431a02d2534047
:100c5600c01ac9184b00090211431b0e4400240e8a
:100c6600ff2c41d0002b10d05b421b19012b10d357
:100c760022d1c30d4002401a10d3db050100400a01
:100c8600c90591415841644670472442fbd1002072
:100c9600f9e7c30d40024900401af4d000210131a2
:100ca6004000fcd38c4204d95b1adb05400ac0180d
:100cb600e9e7180ac007e6e7192be4d801330c0068
:100cc600d940dc414c40012c4941c30d0002104380
:100cd600441a01d4a4006408013bdb05200a24065b
:100ce6009441584164467047ff2b01d04102cad057
:0a0cf6007f2000010c300005c5e767
:020000040000fa
:100d000080b500af00f06ef800f082f800f003f854
:100d1000c046bd4680bd80b582b000af2d4b0122dc
:100d20001a70c0462b4b1b78dbb21a00012313400c
:100d3000f8d1c046274b1b8b9bb2002bfad1254b19
:100d4000254a5a60234b06221a70c046214b1b8b42
:100d50009bb2002bfad100237b6002e07b68013359
:100d60007b607b681d4a9342f8d91a4b942252014a
:100d70001a62184b11225a62164b1b78dbb2154ac5
:100d800010210b43dbb21370c046124b1b8b9bb27e
:100d90001a0010231340f8d100233b6002e03b68a7
:100da00001333b603b680e4a9342f8d9094b1b78ec
:100db000dbb2084a20210b43dbb21370c046054b5f
:100dc0001b8b9bb21a0020231340f8d1c046bd46ae
:100dd00002b080bd0050004287001c000f270000b9
:100de0008713000080b500af074b084a5a80c04601
:100df000054b5b78dbb21a0080231340802bf7d0c1
:100e0000c046bd4680bdc046000c004023400000e7
:100e100080b500af044b1a6a034b802149030a4393
:0c0e20001a62c046bd4680bd00040040c0
:020000040000fa
:100e2c004200f8b5130e013b051c0100fd2b54d8f4
:100e3c0000283adb3049fff7c0fe304900f0a3f937
:100e4c0000f08cfb070000f0f9fb802301241b064b
:100e5c009c463c40013c2a49e407061c644400f0d3
:100e6c0037f9291cfff7a9fe051c2649301c00f098
:100e7c002ff9011c281cfff7a0fe234a4300051c78
:100e8c005b08934201d86040f8bd011c00f020f9ca
:100e9c000522011c1d4800f071fa011c281c00f0f1
:100eac0017f9291cfff789feede7134800f020fc29
:100ebc00124900f068f900f051fb040000f0befb91
:100ecc00061c012020400138c4070d49301c00f0dd
:100edc00fff8291c00f00cfcc6e7ff231b069a4206
:100eec0004d00b4b9a42cfd90a48cde721220a4baa
:100efc0008481a60c8e7c046db0fc93fdb0f494002
:100f0c00001049c07a771537fee6db2ed4160000a8
:0c0f1c00fffffffe0000c07ff40100207a
:020000040000fa
:100f280080b500af074b084a1a82c046054bdb68fc
:100f380001221340012bf9d1024b00229a61c046cd
:100f4800bd4680bd000800400603000080b582b0a1
:100f580000af1c4b9b8c9bb21a4a80218b439bb2df
:100f68009384c046174bdb6810221340102bf9d12d
:100f7800154b1b689b0e7b607b683f2b01d07b6801
:100f880000e01f237b607b689b021b041a0c0d4b3f
:100f9800802189000a439a62c0460a4bdb68102206
:100fa8001340102bf9d1074b02229a84c046054bf7
:100fb800db6810221340102bf9d1c046bd4602b0a1
:100fc80080bdc046000800402460800080b500afa6
:100fd800074b802252025a60c046054b5b78dbb251
:100fe8001a0080231340802bf7d0c046bd4680bd31
:100ff800000c004080b500affff792fffff7e6ff57
:10100800024b00221a62c046bd4680bd000800405f
:020000040000fa
:10101800f0b40125ed070c005c402c40a446ae0a54
:101028004c18df18f4423dd2f74245d2640d4cd03b
:101038007f0d3cd0e41bc9022943cf0adb022b43b6
:10104800db0a0600b61a9f4104d2013cb6197f415b
:10105800b6185f416812800d241838dd00188442e4
:1010680025d8e80c0021b6197f41b61a9f4103d351
:1010780040414941f7d304e0b6185f41001849419f
:10108800f1d32405b6197f41b61a9f4105d33743da
:10109800c20717430022012f5041614162461143a4
:1010a800f0bc70470cd100280ad1f74208d20020c2
:1010b800c143490d0905f1e7002a01d1f74206d0dd
:1010c8000020c143090dc904eae77f0df8d00020cc
:0410d8006146e5e7a1
:020000040000fa
:1010dc0030b405004d400124e407254042004b008c
:1010ec00120e32d01b0e3cd0ff2a33d0ff2b3fd038
:1010fc00d21800022043000a09022143090ac4b293
:10110c004c43000ac3b24b43000a4843210a5b1804
:10111c00190a091801d44900013a080a7f3a2adb56
:10112c00fe2a0fd2d2051c43240601d001242143f0
:10113c00c9b280295041802901d140084000284380
:10114c0030bc7047ff20c005f9e71b0eff2b0ad0ff
:10115c002800f5e7400206d1ff2bf3d1490202d15a
:10116c00f0e7ff2af4d17f2000010c300005e7e7ff
:10117c004902f8d1e6e743020132e9d15b120233ae
:06118c00e6d9d805e4e7f6
:020000040000fa
:1011920030b405004d400124e407254042004b00d5
:1011a200120e26d01b0e34d0ff2a2dd0ff2b35d0a5
:1011b200d21a000220430902214343084908a00d24
:1011c2005b1a02d2013a5b005b185b008b4200d3d0
:1011d2005b1a4041f9d37f3222ddff2a06d2d205c3
:1011e200c91a8b425041284330bc7047ff20c005ca
:1011f200f9e71b0e03d0ff2b12d1490210d07f203a
:1012020000010c300005efe74002f8d1ff2bedd1d1
:10121200f5e7ff2aead14002f1d1e7e74902eed130
:041222002800e1e7d8
:020000040000fa
:02122600fee7e1
:020000040000fa
:10122800002934d00123002210b488422cd3012491
:101238002407a14204d2814202d209011b01f8e726
:10124800e400a14204d2814202d249005b00f8e7df
:10125800884201d3401a1a434c08a04202d3001b0b
:101268005c0822438c08a04202d3001b9c0822433e
:10127800cc08a04202d3001bdc082243002803d07c
:101288001b0901d00909e3e7101c10bc704701b520
:10129800002000f049fa02bd0029f8d003b5fff795
:0c12a800c1ff0ebc4243891a1847c04623
:020000040000fa
:1012b400fc01002004000000010000000000000008
:1012c400d40100201c0000000000000000000020e9
:1012d4008401000000000000f0010020080000006c
:1012e4000000000084010020500000000000000005
:1012f400f8010020040000000000000000020020ab
:1013040004000000010000000000000000000000d4
:101314000000000066666666666666666666666601
:020000040000fa
:101324004b1801225205da4217d25b0d0722d20173
:101334009b1a0fd9ff2b13d2db05ca0fd207134315
:101344000903020d1143490ac200524100d9013177
:10135400c8187047c80fc007704706d1002804d1c9
:10136400c80f0002ff30c00570470123db070a00e5
:10137400c900400f084398431a4010435b0a1843be
:021384007047b0
:020000040000fa
:021386007047ae
:020000040000fa
:1013880070b5941ea40004190d1c281c6168160071
:10139800fff7a0fe2168fff712fc291cfff79afe51
:1013a800231f1968fff70bfc032e11d0291cfff728
:1013b80091fe2300083b1968fff701fc042e07d0b3
:1013c800011c0c3c281cfff785fe2168fff7f7fb82
:0c13d800011c281cfff77efe70bdc04603
:020000040000fa
:1013e40000230e4a10b513600d4a13600d4a1360b2
:1013f4000d4a13600d4a13600d4a536213610133a1
:10140400936000f050f900f04ef90a4c0a4b9c42ec
:1014140000d310bd08cc9847f8e7c046f801002077
:10142400900100208c01002084010020880100200c
:0c14340094010020bc000000c00000007b
:020000040000fa
:1014400080b582b000af7860094b06225a60fef783
:10145000affffff7d3fd00f00df8fff751fcfef7eb
:1014600037fefff771fac046bd4602b080bdc046e8
:101470000040004180b500af0549982280231b0140
:101480008b50034b40229a61c046bd4680bdc0468a
:0414900000440041d3
:020000040000fa
:1014940010b5064c2378002b07d1054b002b02d046
:1014a400044800e000bf0123237010bdd4010020d4
:1014b4000000000000000000044b10b5002b03d016
:1014c4000349044800e000bf10bdc046000000000e
:0814d400d80100200000000017
:020000040000fa
:1014dc0010b50a4b98470a4b984700f07bf8094b1c
:1014ec00ff229343084a9360084b9847084b984750
:1014fc00084b984700f060f8fee7c04687130000e1
:10150c00871300000000000000ed00e0e513000070
:08151c00871300008713000093
:020000040000fa
:1015240041008c46012212068a420bd8090938234d
:101534001b06c918c30fdb07194340076346da4289
:1015440004d27047c10fc9070020704703d1382364
:101554001b06c918704738231b06c9180122d20478
:041564001143704778
:020000040000fa
:101568004200110e7f390fd40123db0749421f3196
:101578000cdd400003d2c0011843c8407047c001c9
:101588001843c8404042704700207047ff210906b1
:0e1598008a4200d99843184000d4d8437047c7
:020000040000fa
:1015a60080b582b000af786000e0c0467b685a1e06
:1015b6007a60002bf9d1c046bd4602b080bd80b529
:1015c60000af0020fff739fffff74ff8fff7d9f814
:0815d60000231800bd4680bd92
:020000040000fa
:0215de00704754
:020000040000fa
:1015e00010b50b480168002905d14368002b02d1d2
:1015f000fff7f5ff10bd04008368064a9bb20c3468
:101600009b009b5842682000984780002018e9e71b
:08161000b4120000ac1600004a
:020000040000fa
:1016180080b584b000aff860b9607a6001235b429e
:101628001800bd4604b080bd80b584b000aff86036
:10163800b9607a6001235b421800bd4604b080bde2
:020000040000fa
:10164800c20f12029d3201000cd001d5494202d4ca
:10165800013a4900fcd5d205080a0906494100d3d8
:061668000129504170470a
:020000040000fa
:10166e009d2201000ad002d4013a4900fcd5d205d0
:0e167e00080a0906494100d30129504170476e
:020000040000fa
:10168c00002310b5934206d103201840421e90410e
:0e169c009b08c01810bdc45ccc540133f2e7ab
:020000040000fa
:0216aa00704787
:020000040000fa
:1016ac00e91600008d1600002d1700002d17000004
:0416bc002d170000e6
:020000040000fa
:1016c00010b5002a05d00023cc5cc45401339342ea
:0416d000fad110bd7e
:020000040000fa
:1016d400abaa2abe9788083c281050b993293936fa
:0416e400d4aad5b2fd
:020000040000fa
:1016e8008a18914201d10020704700230b70013104
:0216f800f7e712
:020000040000fa
:1016fc000122d2075140014b18470000cb0b0000d0
:020000040000fa
:0c170c0080b500affee780b500affee73f
:020000040000fa
:0a17180080b500afc046bd4680bd9d
:020000040000fa
:0a17220080b582b000af7860fee7ea
:020000040000fa
:04172c0000207047e2
:020000040000fa
:041730007047c046f8
:020000040000fa
:0200000400807a
:0440000077c700d8a6
:020000040000fa
:0200000400807a
:044004005c00ffff5e
:00000001FF
